:03000000020FBA32
:0C0FBA00787FE4F6D8FD75812A020D4A0C
:100EF800373430320037343131320037343234331A
:100F0800003734363834003430373700494320004E
:100F1800206973207265636F676E69736564203A30
:100F2800290A0D004E6F20494320686173206265CD
:100F3800656E207265636F676E69736564203A2811
:100F48000A0D00FF0EF8FF0EFDFF0F03FF0F09FF4C
:100F58000F0FFF0E7DFF0BBCFF0C89FF0800FF0D74
:010F6800FA8E
:100D4A00E4F508F509780A7C00FD7BFF7A0F794BF8
:100D5A00FE7F0F120B6378197C007D007BFF7A0FF0
:100D6A00795A7E007F0F120B63758920758DF47591
:100D7A009850D28E7FE87E03120F96E4F509F508A3
:100D8A00AF08EF3395E0FEC3EF9405EE64809480DC
:100D9A005043EF75F003A42419F808E6FA08E6F9B7
:100DAA00120BB6EF602B7509017BFF7A0F791412CB
:100DBA000F69E50875F003A4240AF8860308E6FA21
:100DCA0008E6F9120F697BFF7A0F7918120F69800A
:100DDA0004050880ABAF09EF3395E04F70097BFF3C
:100DEA007A0F792C120F697FE87E03120F96808B97
:100F9600E4FDFC438901C3ED9FEC9E5016758CF869
:100FA600758ACBD28C308DFDC28CC28D0DBD0001F1
:030FB6000C80E3C9
:010FB9002215
:060F69008B288A29892A69
:100F6F00E4FFFEAB28AA29A92A8F828E83120B8950
:100F7F00FDFB3395E04B600EC2998D993099FD0FB3
:060F8F00BF00010E80DD31
:010F95002239
:100E7D00D2A0C286C281C282C284C285C2A6C2A5C8
:100E8D00C2A3C2A2A283828082A482A140037F005A
:100E9D0022D281C282D284C285D2A6C2A5D2A3C2D9
:100EAD00A2A28072807280728050037F0022C28164
:100EBD00D282C284D285C2A6D2A5C2A3D2A2A2805A
:100ECD0072807280728050037F0022D281D282D2D2
:100EDD0084D285D2A6D2A5D2A3D2A2A280728072CC
:0B0EED0080728050037F00227F0122F2
:100BBC00D2A0C287D284D2A7D285D286C281C28269
:100BCC00C2A4C2A5D280D2A3D2A1D2A2D283D2A6D1
:100BDC00C2A1C2A2D2A1D2A220840920A70630852C
:100BEC00032086037F0022C283C2A6D283D2A63002
:100BFC00840930A7062085033086037F0022D2812A
:100C0C00D2A4C280C2A3D280D2A3C281C2A4C28009
:100C1C00C2A3D280D2A320840920A706308503204A
:100C2C0086037F0022D282D2A5C280C2A3D280D2F8
:100C3C00A330840930A7062085033086037F002269
:100C4C00C282C2A5C280C2A3D280D2A33084093092
:100C5C00A7062085033086037F0022D282D2A5D23C
:100C6C0081D2A4C280C2A3D280D2A320840920A79F
:0D0C7C00063085032086037F00227F0122C1
:100C8900D2A0C286D2A3D2A4D2A5D2A6D280D2A102
:100C9900C282D283C284D28520A30930A40620A5AA
:100CA9000320A6037F0022D282C283D284C2853068
:100CB900A30920A40630A50330A6037F0022D2820F
:100CC900D283D284D285C280C2A1C2A3D2A4C2A532
:100CD900D2A62082093083062084032085037F0061
:100CE90022D2A3C2A4D2A5C2A6308209208306308B
:100CF90084033085037F0022D2A3D2A4D2A5D2A631
:100D0900D280C2A1C282C283C284C28530A3093003
:100D1900A40630A50320A6037F0022D282D283D263
:100D290084D285D280C2A1C2A3C2A4C2A5C2A63060
:100D390082093083063084032085037F00227F01E6
:010D49002287
:10080000D2A0C292D280D2A1C280C281C283C2854C
:10081000C287C293C2A7C2A5C2A3C282C284C28633
:10082000C291C294C2A6C2A4C2A230A1037F002278
:10083000C2A3C2A5C2A7C293C287C285C283D28106
:10084000C2A2C2A4C2A6C294C291C286C284C282FB
:1008500020A1037F0022C2A3C2A5C2A7C293C28760
:10086000C285C283D281C2A2C2A4C2A6C294C291CE
:10087000C286C284D28230A1037F0022C2A3C2A555
:10088000C2A7C293C287C285C283D281C2A2C2A4B8
:10089000C2A6C294C291C286D284C28220A1037F22
:1008A0000022C2A3C2A5C2A7C293C287C285D283B7
:1008B000C281C2A2C2A4C2A6C294C291C286D2847C
:1008C000C28230A1037F0022C2A3C2A5C2A7C293E5
:1008D000C287D285C283C281C2A2C2A4C2A6C29468
:1008E000C291C286C284C28220A1037F0022C2A319
:1008F000C2A5C2A7C293C287D285C283C281C2A247
:10090000C2A4C2A6C294C291D286C284C28230A1BD
:10091000037F0022C2A3C2A5C2A7C293C287D28509
:10092000C283C281C2A2C2A4C2A6C294D291C2860C
:10093000C284C28220A1037F0022C2A3C2A5C2A793
:10094000C293D287C285C283C281C2A2C2A4C2A6F8
:10095000C294D291C286C284C28230A1037F002297
:10096000C2A3C2A5C2A7D293C287C285C283C281D5
:10097000C2A2C2A4C2A6C294C291C286C284C282CA
:1009800020A1037F0022C2A3C2A5C2A7D293C2871F
:10099000C285C283C281C2A2C2A4C2A6D294C2919D
:1009A000C286C284C28230A1037F0022C2A3C2A534
:1009B000C2A7D293C287C285C283C281C2A2C2A487
:1009C000D2A6C294C291C286C284C28220A1037FF1
:1009D0000022C2A3C2A5D2A7C293C287C285C28386
:1009E000C281C2A2C2A4D2A6C294C291C286C2844B
:1009F000C28230A1037F0022C2A3D2A5C2A7C293A4
:100A0000C287C285C283C281C2A2C2A4C2A6C29446
:100A1000C291C286C284C28220A1037F0022C2A3E7
:100A2000D2A5C2A7C293C287C285C283C281C2A215
:100A3000D2A4C2A6C294C291C286C284C28230A18C
:100A4000037F0022C2A3D2A5C2A7C293C287C285D8
:100A5000C283C281D2A2C2A4C2A6C294C291C286DB
:100A6000C284C28220A1037F0022D2A3C2A5C2A752
:100A7000C293C287C285C283C281D2A2C2A4C2A6C7
:100A8000C294C291C286C284C28230A1037F002276
:030A90007F0122C1
:100DFA00D2A0C286D282D283D2A4D2A3C280C28116
:100E0A00C284C285C2A6C2A5C2A2C2A1A28382828C
:100E1A0082A482A340037F0022D280C281D284C2EC
:100E2A0085D2A6C2A5D2A2C2A1A283728272A472DC
:100E3A00A350037F0022C280D281C284D285C2A677
:100E4A00D2A5C2A2D2A1A283728272A472A35003B3
:100E5A007F0022D280D281D284D285D2A6D2A5D2D4
:100E6A00A2D2A1A283828282A482A340037F00220B
:030E7A007F0122D3
:100A9300E709F608DFFA8046E709F208DFFA803E45
:100AA30088828C83E709F0A3DFFA8032E309F60832
:100AB300DFFA8078E309F208DFFA807088828C839A
:100AC300E309F0A3DFFA806489828A83E0A3F6084E
:100AD300DFFA805889828A83E0A3F208DFFA804C28
:100AE30080D280FA80C680D4806980F280338010FF
:100AF30080A680EA809A80A880DA80E280CA803368
:100B030089828A83ECFAE493A3C8C582C8CCC583DF
:100B1300CCF0A3C8C582C8CCC583CCDFE9DEE780AF
:100B23000D89828A83E493A3F608DFF9ECFAA9F02E
:100B3300EDFB2289828A83ECFAE0A3C8C582C8CC84
:100B4300C583CCF0A3C8C582C8CCC583CCDFEADE9D
:100B5300E880DB89828A83E493A3F208DFF980CCFF
:100B630088F0EF60010E4E60C388F0ED2402B404F8
:100B73000050B9F582EB2402B4040050AF2323459F
:060B83008223900AE373D7
:100B8900BB010CE58229F582E5833AF583E0225021
:100B990006E92582F8E622BBFE06E92582F8E2226B
:0D0BA900E58229F582E5833AF583E4932285
:060BB6008A838982E473CA
:00000001FF
